{
  "_format": "hh-sol-artifact-1",
  "contractName": "SimpleToken",
  "sourceName": "contracts/SimpleToken.sol",
  "abi": [
    {
      "inputs": [
        {
          "internalType": "uint256",
          "name": "_totalSupply",
          "type": "uint256"
        }
      ],
      "stateMutability": "nonpayable",
      "type": "constructor"
    },
    {
      "inputs": [
        {
          "internalType": "address",
          "name": "",
          "type": "address"
        }
      ],
      "name": "balances",
      "outputs": [
        {
          "internalType": "uint256",
          "name": "",
          "type": "uint256"
        }
      ],
      "stateMutability": "view",
      "type": "function"
    },
    {
      "inputs": [
        {
          "internalType": "address[]",
          "name": "recipients",
          "type": "address[]"
        },
        {
          "internalType": "uint256[]",
          "name": "amounts",
          "type": "uint256[]"
        }
      ],
      "name": "batchTransfer",
      "outputs": [],
      "stateMutability": "nonpayable",
      "type": "function"
    },
    {
      "inputs": [
        {
          "internalType": "address",
          "name": "user",
          "type": "address"
        }
      ],
      "name": "getBalance",
      "outputs": [
        {
          "internalType": "uint256",
          "name": "",
          "type": "uint256"
        }
      ],
      "stateMutability": "view",
      "type": "function"
    },
    {
      "inputs": [],
      "name": "totalSupply",
      "outputs": [
        {
          "internalType": "uint256",
          "name": "",
          "type": "uint256"
        }
      ],
      "stateMutability": "view",
      "type": "function"
    },
    {
      "inputs": [
        {
          "internalType": "address",
          "name": "to",
          "type": "address"
        },
        {
          "internalType": "uint256",
          "name": "amount",
          "type": "uint256"
        }
      ],
      "name": "transfer",
      "outputs": [
        {
          "internalType": "bool",
          "name": "",
          "type": "bool"
        }
      ],
      "stateMutability": "nonpayable",
      "type": "function"
    }
  ],
  "bytecode": "0x608060405234801561001057600080fd5b5060405161090c38038061090c83398181016040528101906100329190610097565b80600181905550806000803373ffffffffffffffffffffffffffffffffffffffff1673ffffffffffffffffffffffffffffffffffffffff16815260200190815260200160002081905550506100e1565b600081519050610091816100ca565b92915050565b6000602082840312156100a957600080fd5b60006100b784828501610082565b91505092915050565b6000819050919050565b6100d3816100c0565b81146100de57600080fd5b50565b61081c806100f06000396000f3fe608060405234801561001057600080fd5b50600436106100575760003560e01c806318160ddd1461005c57806327e235e31461007a57806388d695b2146100aa578063a9059cbb146100c6578063f8b2cb4f146100f6575b600080fd5b610064610126565b604051610071919061059b565b60405180910390f35b610094600480360381019061008f9190610491565b61012c565b6040516100a1919061059b565b60405180910390f35b6100c460048036038101906100bf91906104f6565b610144565b005b6100e060048036038101906100db91906104ba565b61023d565b6040516100ed9190610580565b60405180910390f35b610110600480360381019061010b9190610491565b6102f3565b60405161011d919061059b565b60405180910390f35b60015481565b60006020528060005260406000206000915090505481565b60005b825181101561023857818181518110610189577f4e487b7100000000000000000000000000000000000000000000000000000000600052603260045260246000fd5b60200260200101516000808584815181106101cd577f4e487b7100000000000000000000000000000000000000000000000000000000600052603260045260246000fd5b602002602001015173ffffffffffffffffffffffffffffffffffffffff1673ffffffffffffffffffffffffffffffffffffffff168152602001908152602001600020600082825461021e919061063f565b92505081905550808061023090610711565b915050610147565b505050565b6000816000803373ffffffffffffffffffffffffffffffffffffffff1673ffffffffffffffffffffffffffffffffffffffff168152602001908152602001600020600082825461028d9190610695565b92505081905550816000808573ffffffffffffffffffffffffffffffffffffffff1673ffffffffffffffffffffffffffffffffffffffff16815260200190815260200160002060008282546102e2919061063f565b925050819055506001905092915050565b60008060008373ffffffffffffffffffffffffffffffffffffffff1673ffffffffffffffffffffffffffffffffffffffff168152602001908152602001600020549050919050565b600061034e610349846105e7565b6105b6565b9050808382526020820190508285602086028201111561036d57600080fd5b60005b8581101561039d57816103838882610413565b845260208401935060208301925050600181019050610370565b5050509392505050565b60006103ba6103b584610613565b6105b6565b905080838252602082019050828560208602820111156103d957600080fd5b60005b8581101561040957816103ef888261047c565b8452602084019350602083019250506001810190506103dc565b5050509392505050565b600081359050610422816107b8565b92915050565b600082601f83011261043957600080fd5b813561044984826020860161033b565b91505092915050565b600082601f83011261046357600080fd5b81356104738482602086016103a7565b91505092915050565b60008135905061048b816107cf565b92915050565b6000602082840312156104a357600080fd5b60006104b184828501610413565b91505092915050565b600080604083850312156104cd57600080fd5b60006104db85828601610413565b92505060206104ec8582860161047c565b9150509250929050565b6000806040838503121561050957600080fd5b600083013567ffffffffffffffff81111561052357600080fd5b61052f85828601610428565b925050602083013567ffffffffffffffff81111561054c57600080fd5b61055885828601610452565b9150509250929050565b61056b816106db565b82525050565b61057a81610707565b82525050565b60006020820190506105956000830184610562565b92915050565b60006020820190506105b06000830184610571565b92915050565b6000604051905081810181811067ffffffffffffffff821117156105dd576105dc610789565b5b8060405250919050565b600067ffffffffffffffff82111561060257610601610789565b5b602082029050602081019050919050565b600067ffffffffffffffff82111561062e5761062d610789565b5b602082029050602081019050919050565b600061064a82610707565b915061065583610707565b9250827fffffffffffffffffffffffffffffffffffffffffffffffffffffffffffffffff0382111561068a5761068961075a565b5b828201905092915050565b60006106a082610707565b91506106ab83610707565b9250828210156106be576106bd61075a565b5b828203905092915050565b60006106d4826106e7565b9050919050565b60008115159050919050565b600073ffffffffffffffffffffffffffffffffffffffff82169050919050565b6000819050919050565b600061071c82610707565b91507fffffffffffffffffffffffffffffffffffffffffffffffffffffffffffffffff82141561074f5761074e61075a565b5b600182019050919050565b7f4e487b7100000000000000000000000000000000000000000000000000000000600052601160045260246000fd5b7f4e487b7100000000000000000000000000000000000000000000000000000000600052604160045260246000fd5b6107c1816106c9565b81146107cc57600080fd5b50565b6107d881610707565b81146107e357600080fd5b5056fea2646970667358221220d0cbe8616ddd57e1eaa596d61737ee366361a54e7631b00cbfdc59452f30965a64736f6c63430008000033",
  "linkReferences": {},
  "deployedLinkReferences": {}
}